:020000040800F2
:10000000E8070020990100084B1E0008DD170008D2
:10001000491E0008D3050008E72000080000000082
:100020000000000000000000000000009D1F00080C
:100030001907000800000000531E00089F1F000859
:10004000B3010008B3010008B3010008B3010008C0
:10005000B3010008B3010008B3010008B3010008B0
:10006000B3010008B3010008B3010008B3010008A0
:10007000B3010008B3010008B3010008B301000890
:10008000B3010008B3010008B3010008B301000880
:10009000B3010008B3010008B30100081B07000802
:1000A000B3010008B3010008B3010008B301000860
:1000B000B3010008B3010008B3010008B301000850
:1000C000B3010008B3010008B3010008B301000840
:1000D000B3010008B3010008B3010008B301000830
:1000E000B3010008B3010008B301000800F002F8F2
:1000F00000F042F80AA090E8000C82448344AAF180
:100100000107DA4501D100F037F8AFF2090EBAE87D
:100110000F0013F0010F18BFFB1A43F0010318473B
:100120006829000088290000103A24BF78C878C1E7
:10013000FAD8520724BF30C830C144BF04680C60ED
:10014000704700000023002400250026103A28BF35
:1001500078C1FBD8520728BF30C148BF0B60704739
:10016000642900F0B180632900F0ED810020704720
:100170001FB51FBD10B510BD00F0F1F91146FFF716
:10018000F7FF01F0C1FF00F00FFA03B4FFF7F2FF31
:1001900003BC00F017FA00000948804709480047EF
:1001A000FEE7FEE7FEE7FEE7FEE7FEE7FEE7FEE727
:1001B000FEE7FEE704480549054A064B7047000084
:1001C00001200008ED000008E8010020E8070020F9
:1001D000E8030020E80300200FB41CB50C0007AAB8
:1001E000009001D02044401E074B7B44694601909B
:1001F000069800F07EF9002C03D06946002000F03C
:100200008BF91CBC5DF814FB350300002DE9F041AF
:100210000E460446002020622046E168884730B33D
:10022000252805D0D4E901219047206A401CF2E737
:10023000E168204600278847050018D0A5F1410055
:10024000192802D820354FF4006732462946204647
:100250002760FFF785FF40B1012804D0F61D26F086
:1002600007060836D8E7361DD6E72846DAE7206ABB
:10027000BDE8F08170B50C460546012A05D0287806
:10028000800600D5EA69002302E0012305E05B1C3B
:10029000934202D2E05C0028F9D1A869E618C01A9E
:1002A000A861286A184428622846AFF3008004E059
:1002B000D5E9012114F8010B9047B442F8D3284640
:1002C000AFF3008070BD00002DE9F0410646002428
:1002D00010687529314616A510D0AFF300800028AC
:1002E00002DA404213A507E031688A0701D512A55A
:1002F00002E0490704D511A5012401E0AFF3008015
:1003000000210A2206F1240709E0B0FBF2FCB0FB51
:10031000F2F302FB1C00303078541846491C0028C8
:10032000F3D123462A463046BDE8F04100F083B8B9
:10033000000000002D0000002B0000002000000045
:1003400010B5431C02E010F8011B71B18107FAD10E
:100350004FF0013202C88C1A8C4314EAC211F9D052
:10036000C01A0A0603D0C01E10BDC01A10BD0A0470
:1003700001D0801E10BD0902FCD0401E10BD10B57A
:10038000203AC0F00B80B1E81850203AA0E818508D
:10039000B1E81850A0E81850BFF4F5AF5FEA027C4E
:1003A00024BFB1E81850A0E8185044BF18C918C0BD
:1003B000BDE810405FEA827C24BF51F8043B40F85E
:1003C000043B08BF7047D20728BF31F8023B48BF43
:1003D00011F8012B28BF20F8023B48BF00F8012B81
:1003E00070474FF0000200B51346944696462039F8
:1003F00022BFA0E80C50A0E80C50B1F12001BFF4DE
:10040000F7AF090728BFA0E80C5048BF0CC05DF843
:1004100004EB890028BF40F8042B08BF704748BF91
:1004200020F8022B11F0804F18BF00F8012B704705
:100430007047704770472DE9F0470D469946924640
:10044000044600F124080168880604D5E06921F01B
:100450001001216000E00120A84201DD471B00E0FF
:100460000027A1697A1902EB0900081AA061207817
:10047000C00602D42046AFF30080002608E0D4E98D
:1004800001211AF806009047206A401C761C206261
:100490004E45F4DB2078C0060AD52046AFF3008035
:1004A00006E0D4E9012130209047206A401C2062F8
:1004B000381EA7F10107F4DC07E0D4E9012118F8A0
:1004C00005009047206A401C2062281EA5F1010506
:1004D000F3DC2046AFF300802078000602D502202E
:1004E000BDE8F0870120FBE701694A1C026108783A
:1004F000704700B58FB0CDE9013100210591054964
:100500007944CDE9031011466846FFF77FFE0FB02E
:1005100000BD0000E5FFFFFF0A6802F8010B0A605A
:100520007047D1E900239A4202D2531C0B6010702D
:10053000704710B5436913B1AFF3008001E0FFF7D6
:1005400099FE012010BD127800F124010A700022EA
:100550004A700122EDE711684FF0FF32E9E7754676
:1005600000F02CF8AE4605006946534620F007001F
:10057000854618B020B5FFF71DFEBDE820404FF0BE
:1005800000064FF000074FF000084FF0000B21F07D
:100590000701AC46ACE8C009ACE8C009ACE8C0094A
:1005A000ACE8C0098D46704710B50446AFF3008033
:1005B0002046BDE81040FFF7E8BD00000048704746
:1005C0008401002001491820ABBEFEE7260002008E
:1005D0007047FEE72DE9F04700254FF0010A4FF480
:1005E0008059DFF88480214C00F0C4F9206200F0CB
:1005F000C1F94F46606202E000F0BCF96062394622
:10060000404600F0ADF920B9D4E90801801C8842C9
:10061000F2D8282001F0CEFDB9463946474640467B
:1006200000F09EF90028C5F107010AFA01F019D07F
:100630003043C6B200F09EF9C4F8200000F09AF9E9
:1006400060624946384600F08BF920B1D4E90801D0
:10065000801C8842F2D86D1CEDB2082DC4D3304600
:10066000BDE8F0878643E5E7000801400000002070
:100670002DE9FF41002502204FF480544FF001087E
:10068000CDE90250224ECDE900482F46694630465A
:1006900000F076F800222146304600F066F914207A
:1006A00000F042F801222146304600F05EF91E209B
:1006B00001F080FDCDE901786946304600F060F830
:1006C000282001F077FD2146304600F049F940B975
:1006D000502001F06FFD2146304600F041F900B195
:1006E000012500F047F90B4FC7F8200000F042F950
:1006F00078622146304600F033F920B1D7E908018D
:10070000801C8842F2D804B02846BDE8F081000081
:10071000000801400000002070474FF4807000F096
:1007200023B872B6FEE7000070B5044600F022F967
:100730000546601C02D004480078044400F01AF911
:10074000401BA042FAD370BDA800002010B5B0F540
:10075000807F07D101F025FC00F020FCBDE81040AF
:1007600001F050BD10BD0000044910B50A680242F6
:1007700002D00860FFF7EAFF10BD0000140401403A
:100780002DE9F84FDFF8B8910024A9F1040B2346B6
:100790000F2709F1040AABF1040EC9E00125A540B9
:1007A0002A40AA427DD1674ED1F804C0ACEB0608BE
:1007B000B44532D014DCBCF1030F3AD009DCBCF1F3
:1007C000000F2AD0BCF1010F1CD0BCF1020F31D1B7
:1007D0001DE0BCF1110F17D0BCF1120F2AD119E0A6
:1007E000B8F5881F19D006DCB8F5803F15D0B8F5EC
:1007F000801F1FD111E0B8F5001F0ED0B8F5041FFF
:1008000018D10AE0CB6815E0CB681B1D12E0CB685D
:1008100008330FE0CB680C330CE08B682BB1012B55
:100820004FF0080303D0456104E0042302E00561B2
:1008300000E00023FF2A01D8064601E000F104068B
:100840004FEA840501D9A5F12005D6F8008007FA02
:1008500005FC28EA0C0803FA05F548EA0508C6F87D
:1008600000804D68ED0062D5374DAE6946F0010657
:10087000AE61AD6924F0030605F001050095334D26
:1008800006EB050CDCF80850A607360F07FA06F849
:1008900025EA0805DFF8B880404503D14FF000088D
:1008A00017E044E0DFF8AC80404502D14FF001088A
:1008B0000FE0DFF8A480404502D14FF0020808E0C5
:1008C000DFF89880404502D14FF0030801E04FF077
:1008D000040808FA06F848EA0508CCF808804D68CC
:1008E000D9F80060ED024D4601D5164300E096436D
:1008F0002E604D68DAF80060AD02554601D516430A
:1009000000E096432E604D68DBF80060AD035D4665
:1009100001D5164300E096432E604D68DEF8006076
:10092000ED03754601D5164300E096432E60641C26
:100930000D682A46E5407FF431AFBDE8F88F00002E
:1009400008040140000011100010024000000140A6
:1009500000080140000C014000100140001401405B
:100960008068084000D0012070470AB101617047DB
:100970000904FBE70148806870470000A8000020D8
:10098000024881680278114481607047A800002005
:10099000074810B5016841F010010160032000F024
:1009A00075F8072000F006F800F024F8002010BDCC
:1009B0000020024070B50D4D04464FF47A7128783E
:1009C000B1FBF0F00A490968B1FBF0F000F0DFFD7F
:1009D00048B9102C07D200222146501E00F036F8EC
:1009E00000206C6070BD012070BD0000A8000020D8
:1009F000B40000200C4808B5816941F00101816113
:100A0000816901F001010091C16941F08051C1612A
:100A1000C06900F0805000900448416821F0E06116
:100A200041F00071416008BD00100240000001402B
:100A3000002809DB00F01F020121914040098000DD
:100A400000F1E020C0F8001170470000F0B40E4B38
:100A50001B680C46C3F30223C3F10705042D00D91C
:100A60000425191D072901D2002300E0DB1E012601
:100A700006FA05F1491E214099409E40761E164017
:100A80003143F0BC01F030BB0CED00E0064900F052
:100A9000070208684FF6FF03184040EA0220034AA5
:100AA00010430860704700000CED00E00000FA05FC
:100AB0000248016841F002010160704710ED00E05A
:100AC0000E4A10B5136823F002031360136823F075
:100AD0000103034313600A4C206840F004002060C7
:100AE000012909D040BF01F0B1F901F0AFF9206848
:100AF00020F00400206010BD30BFF8E70070004017
:100B000010ED00E02DE9F0470F46050061D0434E9F
:100B1000306800F00700B84209D2306820F00700C2
:100B200038433060306800F00700B84251D128687F
:100B30003B4C810712D5400703D5606840F4E06064
:100B400060602878000703D5606840F460506060FA
:100B50006068A96820F0F000084360602878C0074A
:100B600028D06868012810D02168022810D0890791
:100B700000292EDA616821F0030101436160FFF76B
:100B8000F9FE804641F288390DE021688903EFE7DC
:100B90008901EDE7FFF7EEFEA0EB0801494502D918
:100BA0000320BDE8F0876068696800F00C00B0EBD6
:100BB000810FEFD1306800F00700B8420BD93068E0
:100BC00020F0070038433060306800F00700B8427A
:100BD00001D00120E5E72878400705D56068E9687D
:100BE00020F4E060084360602878000706D560685C
:100BF000296920F4605040EAC100606000F018F8F4
:100C00006168084AC1F30311515CC8400649086095
:100C100006480068FFF7CEFE0020C2E70020024031
:100C200000100240282A0008B4000020AC00002078
:100C30000E4A51680E4801F00C03042B11D0082B0A
:100C40000FD10C48C1F38343C903C05C0AD5516876
:100C5000084AC1F34041921E515C054A5043B0FB23
:100C6000F1F070470449484370470000001002400B
:100C700000127A00182A000800093D002DE9F84FFB
:100C8000040070D02078C04DC00749D06868C0F318
:100C90008100012807D06868C0F38100022809D1CB
:100CA0006868C00306D52868800339D560680028C5
:100CB000E7D035E06068B0F5803F0BD010B1B0F5FB
:100CC000A02F11D0286820F480302860286820F4F4
:100CD000802002E0286840F480302860606890B18D
:100CE000FFF748FE06460AE0286840F480202860A6
:100CF000F0E700BFFFF73EFE801B642873D828682A
:100D00008003F7D50CE0FFF735FE064605E000BF8F
:100D1000FFF730FE801B6428F0D828688003F7D4E2
:100D200020789A4E80074FF001094FF0000839D51E
:100D3000686810F00C0F07D06868C0F381000228C3
:100D400009D16868C00306D42868800714D52069D3
:100D5000012808D110E02069B0B1C6F80090FFF773
:100D600009FE074605E00AE1FFF704FEC01B022862
:100D7000C4D828688007F7D52868616920F0F80092
:100D800040EAC10028600DE0C6F80080FFF7F2FDE0
:100D9000074604E0FFF7EEFDC01B022823D82868B1
:100DA0008007F7D4207800072CD57948A169D9B1FC
:100DB000C0F80090FFF7DEFD074604E0FFF7DAFD1C
:100DC000C01B02280FD8686A8007F7D571484FF416
:100DD000FA510068B0FBF1F0009000BF0098411E8E
:100DE0000091FAD20EE080E0C0F80080FFF7C2FD6B
:100DF000074604E0FFF7BEFDC01B022875D8686AED
:100E00008007F7D42078400760D5E8690027C00044
:100E100008D4E86940F08050E861E869012700F0F3
:100E2000805000905C480168C90513D4016883466E
:100E300041F480710160FFF79DFD824606E000BF2E
:100E4000FFF798FDA0EB0A0064284ED8DBF80000FD
:100E5000C005F5D5E06801280AD008B1052813D0EF
:100E6000286A20F001002862286A20F0040002E0CD
:100E7000286A40F001002862E06841F2883B98B19E
:100E8000FFF778FD82460BE0286A40F004002862F4
:100E9000EEE700BFFFF76EFDA0EB0A0159455AD8F7
:100EA000286A8007F6D50CE0FFF764FD824605E06E
:100EB000FFF760FDA0EB0A0159454CD8286A80076E
:100EC000F6D41FB1E86920F08050E861E06988B38A
:100ED0006968C1F38101022944D00228C6F8608004
:100EE00004D0FFF747FD044638E034E0FFF742FD49
:100EF000074604E0FFF73EFDC01B02282BD82868F8
:100F00008001F7D4206AB0F5803F05D16868A168F8
:100F100020F4003008436860D4E908010843696898
:100F200021F4741108436860C6F86090FFF722FD51
:100F3000044606E025E000BFFFF71CFD001B022869
:100F400009D828688001F7D51BE000BFFFF712FD24
:100F5000001B022802D90320BDE8F88F2868800111
:100F6000F4D40EE00128F7D06868226A00F48031DA
:100F7000914204D1616A00F47010884201D00120CE
:100F8000EAE70020E8E700000010024000004242CB
:100F900080044242B4000020007000404FF0E02086
:100FA000016941F002010161704790F851007047FA
:100FB00070B5040009D0606A002540B12561656103
:100FC000A56294F8510040B10CE0012070BD60684A
:100FD000B0F5827FF4D0E561F2E784F85050204606
:100FE00000F040F8022084F851002068016821F0E8
:100FF00040010160A088218900F4827001F404415D
:101000000843A18901F400610843217C01F0020139
:101010000843217D01F001010843218B01F4007197
:101020000843217F01F03801084394F8201001F0B3
:1010300080010843218D01F40051084321680860B4
:10104000A069042101EA1040216848602068C16954
:1010500021F40061C1616565012084F85100002020
:1010600070BD000030B585B0002400940194029456
:1010700003940068174988422AD11748816941F4CE
:1010800080518161816901F480510491816941F04D
:10109000080181618069114D00F00800049028204A
:1010A0000090022001900320039069462846FFF734
:1010B00067FB1020CDE90004694628460294FFF73B
:1010C0005FFB0748416841F0E06141F00101416088
:1010D00005B030BD0030014000100240000C01405E
:1010E000000001402DE9F84F044690F851001D46DC
:1010F00016460F46012838D160684FF00408B0F555
:10110000827F01D1A06830B3FFF734FC8246002F04
:1011100075D0002E73D094F85000012825D04FF0E0
:10112000010984F8509084F851804FF00008C4F809
:101130005480A763A687E687C4F83080A4F834807B
:10114000A4F83680C4F84080C4F84480A068B0F5A4
:10115000004F0CD015E084F85180009313460A46E6
:10116000204600F01CF9BDE8F88F0220FBE720685C
:10117000016821F0400101602068016821F480418C
:10118000016020680168490603D4016841F040010C
:101190000160E068C0B134E020688168C90709D007
:1011A000007BA16B0870A06B401CA063E08F401E09
:1011B000E08709E0FFF7DEFBA0EB0A00A84202D3BC
:1011C000681C01D032E085B3E08F0028E4D11BE039
:1011D00020688168C90709D0C068A16B0880A06B2E
:1011E000801CA063E08F401EE0870AE0FFF7C2FB8F
:1011F000A0EB0A00A84203D3681C02D016E012E05C
:101200009DB1E08F0028E3D152462946204600F0E8
:1012100021FE08B12020606584F8519084F8508048
:10122000606D00289FD001209DE7FFE784F8519072
:1012300084F85080032096E72DE9F84F984616462B
:101240008A460446FFF796FB814694F85100012830
:101250001ED1BAF1000F73D0002E71D094F8500057
:10126000012815D0012784F85070032084F851001C
:1012700000256565C4F830A0A686E686A563A58727
:10128000E58765642564A068B0F5004F03D00CE0E5
:101290000220BDE8F88F2068016821F0400101605C
:1012A0002068016841F480410160206801684906B6
:1012B00003D4016841F040010160E068B0F5006FBF
:1012C000606803D048B3012E27D047E008B1012E53
:1012D0001FD1206B21680088C86006E02068816803
:1012E000890709D5216B0988C160206B801C2063A8
:1012F000E08E401EE0860CE0FFF73CFBA0EB09010E
:10130000414503D3B8F1FF3F03D035E0B8F1000FFA
:1013100032D0E08E0028E1D123E0206B21680078F4
:10132000087306E02068816889070AD5216B09786F
:101330000173206B401C2063E08E401EE0860DE0B0
:101340002BE0FFF717FBA0EB0901414503D3B8F1F0
:10135000FF3F03D010E0B8F1000F0DD0E08E002861
:10136000E0D14A464146204600F0A2FD08B12020C7
:101370006065A06830B109E084F8517084F850507D
:10138000032086E72068C1688068009084F8517067
:1013900004F8505F60680028F3D0012079E72DE958
:1013A000FF4F81B01D46934604464FF001090E9E43
:1013B000FFF7E0FA074694F851006168012806D06B
:1013C000B1F5827F3CD1A168C9BB042838D102980D
:1013D000002871D0BBF1000FFBD0002DF9D094F89C
:1013E000500001282CD04FF0010A84F850A094F846
:1013F0005100042802D0052084F851004FF0000865
:10140000C4F85480C4F838B0E587A58702992163F1
:10141000E586A586C4F84080C4F844802068016849
:10142000490603D4016841F040010160E068B0F56D
:10143000006F606808D0F0B3012D49D081E0FFE76C
:10144000022005B0BDE8F08F08B1012D39D1206B25
:1014500021680088C860206B801C2063E08E401EDD
:10146000E0862EE02068816889070FD5E18E69B19A
:10147000B9F1010F0AD1216B0988C160206B801C72
:101480002063E08E401EE0864FF0000920688168EE
:10149000C9070CD0E18F51B1C068A16B0880A06B67
:1014A000801CA063E08F401EE0874FF00109FFF72A
:1014B00061FAC01B01E00BE067E0B04201D3701C91
:1014C00050D1E08E0028CDD1E08F0028CAD13EE077
:1014D000206B216800780873206B401C2063E08E2D
:1014E000401EE0862DE02068816889070FD5E18ED7
:1014F00069B1B9F1010F0AD1216B09780173206B31
:10150000401C2063E08E401EE0864FF000092068FA
:101510008168C9070CD0E18F51B1C068A16B087018
:10152000A06B401CA063E08F401EE0874FF00109D4
:10153000FFF720FAC01BB04202D3701C01D011E0AB
:1015400086B1E08E0028CED1E08F0028CBD13A467C
:101550003146204600F0ACFC50B12020606584F894
:10156000508012E084F851A084F85080032068E78E
:10157000A06818B92068C1688068009084F851A0FC
:1015800084F85080606D0028F1D0012059E710B533
:10159000401EB0F1807F01D3012010BD4FF0E02448
:1015A00060610F21601700F09FFD0020A0610720FF
:1015B0002061002010BD4FF0E020016921F0020100
:1015C0000161704770B590F83C20012A26D00124B3
:1015D00080F83C40022280F83D2003685A689D68EC
:1015E00022F070060A6832435A600D4B02689A4234
:1015F00008D0B2F1804F05D00A4B9A4202D00A4B74
:101600009A4204D1496825F080031943916080F81B
:101610003D40002180F83C10084670BD022070BD9E
:10162000002C0140000400400008004010B50400F8
:1016300003D094F83D0010B107E0012010BD002058
:1016400084F83C00204600F01FF8022084F83D009A
:10165000211D206800F0D6FC012084F8460084F8A3
:101660003E0084F83F0084F8400084F8410084F88C
:10167000420084F8430084F8440084F8450084F86C
:101680003D00002010BD000008B5006806498842F2
:1016900008D10648816941F400618161806900F4E4
:1016A0000060009008BD0000002C014000100240C6
:1016B00090F83D10012901D001207047022180F8E7
:1016C0003D1000680B49884208D0B0F1804F05D02A
:1016D0000949884202D00949884204D1816801F051
:1016E0000701062903D0016841F0010101600020D3
:1016F00070470000002C014000040040000800403A
:1017000070B5044690F83C000025012817D001264A
:1017100084F83C60022084F83D002068826822F052
:10172000770222F47F4282600868502838D00DDCAE
:1017300020284FD005DC90B3102811D14AE00220B8
:1017400070BD302846D040280AD13BE060282FD019
:1017500070280DD0B0F5805F03D0B0F5005F12D0D7
:10176000012584F83D60002084F83C00284670BDC7
:10177000CB68D1E90121206800F080FC20688168F5
:1017800041F0770109E0CB68D1E90121206800F040
:1017900075FC2068816841F480418160E1E719E0CF
:1017A000CA684968206800F07BFC5021206806E088
:1017B000CA684968206800F084FC6021206800F055
:1017C00067FCCEE7CA684968206800F069FC4021E0
:1017D0002068F4E7226801461046F0E7FEE7F8B516
:1017E000044641F080008DF8000017461E46A1888F
:1017F00000222068FFF7B9F84FF4FA652B46012262
:101800006946A069FFF718FDA069FFF7CEFB012824
:10181000FAD12B4632463946A069FFF70DFDA06983
:10182000FFF7C3FB0128FAD1A18801222068FFF746
:101830009CF8F8BD70B50C460546012100F09FF8F4
:10184000024644B1012C0BD0032C0FD0052C13D031
:10185000062C17D01BE0002002F0F802E86116E029
:10186000012002F0F802521CE86110E0032002F0AF
:10187000F802D21CE8610AE0052002F0F802521DCD
:10188000E86104E0062002F0F802921DE8612846B3
:10189000BDE87040012100F0E4B970B504460021B4
:1018A000FFF7C8FF0A20FEF73FFF0121204600F0A6
:1018B00066F805460A20FEF737FF45F08002012151
:1018C000204600F0CEF96420FEF72EFF2046216A64
:1018D00000F0F4F894F82A10204600F043F994F848
:1018E0002B10204600F01FF923220C21204600F087
:1018F000B8F9204600F060F994F82410204600F072
:101900003BF9FF221F21204600F0ABF994F8250097
:1019100094F82610000100EB4100C2B21D212046C0
:1019200000F09FF9204600F0A3F8208D2021020A44
:10193000204600F096F994F828202121204600F056
:1019400090F94021204600F01AF840F03F02402173
:10195000204600F086F901212046FFF76BFF0120A9
:10196000E0610A20FEF7E0FE4221204600F007F881
:10197000122802D04FF4CA7070BDC82070BD0EB5D9
:1019800001F07F018DF8081001210A46009101AB9A
:1019900002A900F003F89DF804000EBD2DE9F04700
:1019A0000E461546044681889846DDF8209000686A
:1019B0000022FEF7DAFF4FF4FA673B462A4631462B
:1019C000A069FFF739FCA069FFF7EFFA0128FAD107
:1019D0003B464A464146A069FFF784FBA069FFF7F2
:1019E000E4FA0128FAD1A1882068BDE8F047012275
:1019F000FEF7BBBF2DE9F04100250E460746144611
:101A00002846294601E03154401CA042FBDB01215D
:101A10003846FFF70FFF12213846FFF7B0FF4006A8
:101A20001FD5FF221221384600F01BF9132138463A
:101A3000FFF7A5FF054610213846FFF7A0FF024635
:101A40000D21384600F00DF9AC4200D225460024A5
:101A500005E000213846FFF792FF3055641CAC4288
:101A6000F7DB05213846FFF7E5FE2846BDE8F081A3
:101A700010B594B0044650220F496846FEF77FFC2B
:101A800094F824100120884000F0F5FD94F82520FA
:101A90006B4603EBC203D3E9002300F065FC00F0C2
:101AA000BBFD102801DD012100E00021204600F0EF
:101AB00025F814B010BD0000382A000870B505469E
:101AC000C8044411C4F307420621284600F0C9F8AF
:101AD0000520FEF729FEC4F307220721284600F05F
:101AE000C0F80520FEF720FEE2B20821284600F0EB
:101AF000B8F8BDE870400520FEF716BE70B50C467C
:101B000005462621FFF73BFF14B140F0080201E033
:101B100000F0F7022621284600F0A3F8BDE8704047
:101B20000A20FEF701BE10B52D2901D22D2105E0B6
:101B3000F02901D9F02106E0782904D805222D39B1
:101B400091FBF2F103E00A221E31B1FBF2F1C9B2BE
:101B50002031CAB20B2100F084F8BDE810400A2001
:101B6000FEF7E2BD10B50A46092100F07AF8BDE89B
:101B700010400A20FEF7D8BD70B50C4606460C2969
:101B800001DD0C2402E0072C00DA07241E21FFF7F8
:101B9000F6FE05460A20FEF7C7FD64F31F15EAB2FC
:101BA0001E21304600F05DF80A20FEF7BDFD3046EC
:101BB000BDE87040FFF75CBF10B504461E21FFF77B
:101BC000DEFE40F007021E21204600F04AF8BDE884
:101BD00010400A20FEF7A8BD0521FFF72BBE2DE916
:101BE000F0410F461C46164680460121C569FFF7A5
:101BF00021FE0E214046FFF7C2FE02460D2140465F
:101C000000F02FF832462221404600F02AF83346F1
:101C10003A4600214046FFF7E2FD03214046FFF728
:101C200009FE12214046FFF7AAFE00070BD5FF224E
:101C30001221404600F015F829464046FFF7FAFD0C
:101C40000120BDE8F081641E2404240C03D001208F
:101C5000FEF76AFDE5E729464046FFF7EBFD002069
:101C6000EFE70EB541F080018DF8081001218DF8E5
:101C700004200A46009101AB02A900F001F80EBD54
:101C80002DE9F0470E461546044681889846DDF852
:101C9000209000680022FEF768FE4FF4FA673B468A
:101CA0002A463146A069FFF7C7FAA069FFF77DF918
:101CB0000128FAD13B464A464146A069FFF7BCFAE3
:101CC000A069FFF772F90128FAD1A1882068BDE860
:101CD000F0470122FEF749BE2DE9F04186B000240D
:101CE00029480094019402940394816941F02001F1
:101CF0008161816901F020010491816941F0040151
:101D00008161816901F004010491816941F0080158
:101D1000816180691D4F00F008004FF480550490E8
:101D2000002229463846FEF720FEDFF864800122B3
:101D3000C0214046FEF719FE0095022601250396B4
:101D4000CDE9015469463846FEF71AFDC020CDE9B9
:101D50000005CDE9024669464046FEF711FD28021E
:101D600000900C48CDE9010469464046FEF708FDA5
:101D7000002208211720FEF769FE1720FEF758FE03
:101D800006B0BDE8F08100000010024000080140EC
:101D9000000C014000001110104810B50E49016000
:101DA0004FF48271416000218160C1604FF4007284
:101DB0000161C0E905121022C0E907214162816278
:101DC0000A21C162FFF7F4F8002803D0BDE81040F3
:101DD000FEF7A7BC10BD000000300140E400002069
:101DE00010B586B00024174800940194029403941F
:101DF00004941349059401604721C0E901144FF68A
:101E0000FF71C0E9031444618461FFF70FFC08B15E
:101E1000FEF787FC4FF48050009069460948FFF7B1
:101E20006FFC08B1FEF77DFC049404A905480594F5
:101E3000FFF7C8FB002801D0FEF773FC06B010BD09
:101E4000002C01403C010020FEE7FEE720BF00BF60
:101E500070477047F8B5044640684FF48273984263
:101E600017D1A0684FF48065B0F5004F01D0A842AB
:101E70000FD12068066826F0400606606068984228
:101E800007D1A068A84204D100920B46002201218C
:101E900003E000920B4600228021204600F022F849
:101EA000002804D0606D40F0200060650320F8BD7C
:101EB000F8B515460E460B46009204460122022153
:101EC00000F010F840B933460022802120460095EA
:101ED00000F008F8002804D0606D40F02000606534
:101EE0000320F8BD2DE9F8431E4691468846044676
:101EF000089DFEF73FFD401B351AFEF73BFD0746E8
:101F000025480068C0F3CB30684338E0701C37D0F8
:101F1000FEF730FDC01BA84203D215B1009860B394
:101F20002CE02068416821F0E00141606068B0F574
:101F3000827F0BD1A068B0F5004F02D0B0F5806F62
:101F400004D12068016821F040010160A06AB0F569
:101F5000005F09D12068016821F400510160206808
:101F6000016841F400510160012084F85100002013
:101F700084F850000320BDE8F8830025401E00903F
:101F80002068816838EA010004D000214945BDD1AC
:101F90000020F0E70121F9E7B40000207047FEF7C8
:101FA000EFBC30B58FB028216846FEF71AFA14212D
:101FB0000AA8FEF716FA01210804CDE90010002452
:101FC000029402250491CDE907504FF4E0100990E6
:101FD0006846FEF753FE08B172B6FEE70F20CDE962
:101FE0000A054FF48060CDE90C4002210AA80E9446
:101FF000FEF788FD002801D072B6FEE70FB030BDB5
:1020000070470000F0B50268194B1A4C1A4D4FF09A
:102010008047984205D0B84203D0A04201D0A842E0
:1020200003D122F070064A683243984205D0B84284
:1020300003D0A04201D0A84203D122F44074CA6860
:1020400022434C6922F08002224302608A68C26205
:102050000A688262984201D10969016301214161E4
:102060000169C90703D0016921F001010161F0BDD7
:10207000002C0140000400400008004010B58468B6
:1020800042EA032224F47F440A432243826010BDC3
:10209000826822F070020A4342F0070181607047B3
:1020A00010B5036A046A24F001040462846924F010
:1020B000F00444EA021423F00A020A438461026233
:1020C00010BD10B5036A046A24F010040462846928
:1020D00023F0A00324F4704444EA023243EA0111DD
:1020E0008261016210BDFEE70907090E002804DBCA
:1020F00000F1E02080F80014704700F00F0000F1BC
:10210000E02080F8141D70478CB0FEF741FCFFF70B
:1021100048FFFFF7E1FDFFF73FFEFFF761FE2048B4
:10212000FFF7C6FA684600F051F82C2269461D48B0
:10213000FEF725F91B484FF4D971402201620921AD
:1021400080F82410082180F82510042180F826103A
:10215000FC2180F82A10822180F82B100A210185A9
:10216000114940F80C1B20F8082C40F8041C802270
:1021700002804160891501810C49C1600948FFF75F
:102180008CFB0B4908810748FFF726FDFFF713FA80
:10219000FEF78EFC01210846FEF792FCFEE70000E8
:1021A0003C010020B8000020000C0140E4000020A9
:1021B00000000020044900220B685A6209684A6A3C
:1021C0008242FCD3704700003C01002000B58BB078
:1021D00040F2B111089107218DF824108DF82510D7
:1021E00001218DF82610FF218DF82A1064218DF829
:1021F0002B100821ADF828102C226946FEF7BFF8F5
:102200000BB000BD2DE9FC47384C0122E11D60698F
:10221000401C60613648FFF7EDFB6070E0793128C3
:1022200062D1A069401CA061FEF722FA00285BD0B1
:10223000E069401CE061FEF7CDF9A070FEF7CAF935
:10224000E070FEF7C7F92071FEF7C4F96071FEF780
:10225000C1F9A071A178E6788846257931444A19F8
:1022600061790A4482423FD1084600F01BFADFF848
:10227000849000224B4600F077F800F043F80746C0
:10228000284600F0F5FA394600F074FA0746206156
:10229000304600F007FA00224B4600F065F800F0E7
:1022A00031F80546404600F0E3FA294600F062FAAC
:1022B000E06000F0C1FA0546384600F0BDFACDE90D
:1022C000000531230CA2802104F12800FDF784FFD2
:1022D00004F12800FEF734F8C2B2642304F12801A7
:1022E0000348FFF77CFC2070BDE8FC87000000205D
:1022F000B8000020000024402563202564202564C8
:102300000000000021F00042A2F16052B2F5801FEF
:1023100001F0004328BFD2F17F6C0BD95FEA001CAB
:1023200043EAC20242EB507018BF704728BF20F04A
:1023300001007047B2F5801FBCBF184670474FEAD6
:10234000410C1CF5001F02D2084600F0EABA70B535
:1023500000F0BBF900000089FFF7F6BF4FF0004026
:10236000A0F58000704700002DE9C04130B4DFF8CF
:10237000A0C23CEA111418BF3CEA131400F0EC8030
:1023800081EA03051CEA111444EAD57418BF1CEA5B
:10239000131500F0C780A4EB05044FF0004545EA93
:1023A000C12145EAC32341EA505143EA525304F1A3
:1023B0007F74994204F500344FEAC0204FEAC222EC
:1023C00008BF904200F09C804FEA13650FF2401660
:1023D000765D4FEA134506FB05F7C7F1807706FBEC
:1023E00007F74FEAD737A7FB03687642C8F580386E
:1023F000A7FB06CE38BFA8F1010807FB08E64FF09F
:10240000000EA6FB028CE6FB03CEDCF1000CCEF145
:10241000004E38BFAEF1010EA6FB0C584FF000077E
:102420004FF00005E6FB0E87A1FB08C6A0FB07CE18
:1024300016EB0E0645F10005E1FB076515F1E04ED0
:102440007EBFA4F580345FEA46066D4116F1800731
:1024500045F100054FEA17274FEA066647EA056788
:10246000A6F1DE46B6F1805F4FEA15251FD9384642
:1024700024F0010C05EBC471BCF1FE6F01EB0C11F3
:1024800002D8F0BCBDE8008124425CBF01F5801E8B
:102490009EEAC47F02D4F0BCBDE80081244238D457
:1024A000F0BCA1F1C041BDE8004100F05CB94FEAC9
:1024B000D22242EA43524FEAD323A7FB02864FEAD5
:1024C000D02040EA415007FB03661EEA0E0F4FEA98
:1024D000D12105FB026658BFA6EB0056B6EB0056AD
:1024E0004FEA520E4EEAC37E18EB0E0E56EB530E19
:1024F000BDD518EB02085E417F1C55F10005B6E71B
:102500004FF480154FF000074FF000064FF0000821
:10251000ADE7F0BC4FF0000001F1C04101F0004117
:10252000BDE8008111EA0C1F0CEA131500D00CE085
:1025300013EA0C1F00F025804FF00000F0BC81EA88
:10254000030101F00041BDE80081F0BCBDE800419D
:1025500081EA030100F007B9F0BCBDE8004170B5A5
:1025600000F0B3F8097EFC3E00F007B881EA0301F1
:102570004FF0000001F00041704781EA030100F0D4
:10258000F2B8F0BCBDE800414FF0000021497047AF
:10259000FFFDFBF9F7F5F4F2F0EEEDEBE9E8E6E428
:1025A000E3E1E0DEDDDBDAD8D7D5D4D3D1D0CFCDAF
:1025B000CCCBCAC8C7C6C5C4C2C1C0BFBEBDBCBBE8
:1025C000BAB9B8B7B6B5B4B3B2B1B0AFAEADACABE3
:1025D000AAA9A8A8A7A6A5A4A3A3A2A1A09F9F9EBD
:1025E0009D9C9C9B9A99999897979695959493936F
:1025F000929191908F8F8E8E8D8C8C8B8B8A898906
:102600008888878786858584848383828281818088
:102610000000FF070000F87F4FEA41034FEA5353E1
:10262000A3F58063D3F11E03C8BFD3F1210C0CDDE9
:102630004FF0004242EAC12242EA505232FA03FC11
:102640008CEAE17CACEBE1707047102BC4BF00203A
:10265000704703F5787CBCF1FF3F04D06FF0004277
:1026600082EA2100704770B500F02FF8499224806B
:1026700000207047F2E710F0004248BF4042B0FA35
:1026800080F310FA03F10AD0C3F11D0303F5806350
:102690004FEA415002EB035202EBD12170474FF059
:1026A00000007047B0FA80F310FA03F10AD0C3F1CA
:1026B0001D0303F580634FEA41504FEA035202EBDA
:1026C000D12170474FF0000070470EF1020E2EF03E
:1026D000030E5EF8046B364205D4012A43EB030572
:1026E00015F5001F12D8012841EB010C1CF5001F45
:1026F0000CD80ED14FEAD17C15F5001F0CEB4C0C19
:102700000CF1020C08BF4CEBD37C04E04FF0080C3A
:1027100001E04FEAD37C0CEB4C0526FA05F606F0F7
:102720000706B6F1040C06D20EEB860CBDE870402D
:102730004CF0010C6047DFE80CF0090B02024FF08F
:1027400000414FF00000A1F5002170BD1946104670
:10275000012851EB010418BFD4F5001484BF0020F8
:1027600001F0004170BD0808A0F500114FEA3101E9
:102770007047000090EA010F48BF81F0004100F16E
:10278000DC80421A3CBF801A89184FEAD0524FF0C1
:102790007F4C1CEA410FA2EBD15318BF9CEA026F99
:1027A00000F03B804FF0004C4CEA00204CEA012145
:1027B00021FA03FC10EB0C0C1ED202F1FF325FEA8F
:1027C0001C2040EBC25038BF70471CF07F0F4FEA0F
:1027D000400C18BFBCF17F4F38BF7047C3F12003D6
:1027E000994008BF20F00100BCF17F4F38BF70470F
:1027F000A0F1C04000F095B84FEA3C00000A40EB61
:10280000C25028BF1CF0FF0F4FEA400CE6D018BFA3
:10281000BCF17F4F38BF7047EAE79CEA026F05D0F2
:1028200010EA5C0F08BF00F00040704710B500F0E0
:1028300032F800BF64FBBE3E41000B0ED3F19E0296
:1028400008D950F400034FEA032323FA02F048BFEB
:102850004042704710B500F01EF800BF4992248036
:10286000002070476FF0004282EA200070470000AD
:10287000B0FA80F310FA03F2C3F19D030AD0D90530
:1028800001EB1220530638BF704700F1010008BF6A
:1028900020F0010070470EF1020E2EF0030E5EF8DC
:1028A000044B244204D44FEA4102B2F17F4F11D8C5
:1028B0004FEA4003B3F17F4F0CD80ED14FEAD07CE2
:1028C000B2F17F4F0CEB4C0C0CF1020C08BF4CEB3F
:1028D000D17C04E04FF0080C01E04FEAD17C0CEB16
:1028E0004C0324FA03F404F00704B4F1040C06D2F8
:1028F0000EEB840CBDE810404CF0010C6047DFE8A3
:102900000CF0070802024FF00040A0F5800010BD57
:102910000846420018BFD2F1807288BF00F0004024
:1029200010BDFF2141EAD050C005704790EA010F69
:1029300048BF81F000413FF524AF421A04D882F02D
:102940000042A0EB020011444FEAD0524FF07F4CFE
:102950001CEA410FA2EBD15318BF9CEA026F4AD088
:102960004FF0004C4CEA00204CEA012121FA03FC14
:10297000B0EB0C0C0FD412F0FE0F36D05FEA4C0017
:102980001DD5001240EBC25038BF70471CF03F0FFE
:1029900018BF70470BE0A2F101025FEA1C2040EB78
:1029A000C25038BF70471CF07F0F18BF7047C3F18B
:1029B0002003994014BF401E20F00100704780089A
:1029C0004FEA122308BF7047B0FA80FCA2EB0C025A
:1029D000CCF1280C60FA0CF093EA122F04BF00EB44
:1029E000C25070474FEAC3707047130A5FEADC10A9
:1029F00008BF7047F6E79CEA026F04D010EA5C0F4C
:102A000008BF0020704710B5FFF745FF40DFF63ED6
:102A100081F000407047010202030405060708091F
:102A20000A0B0C0D0E0F101000000000000000003B
:102A300001020304060708093333333333331F40DD
:102A4000CDCCCCCCCCCC24403333333333332F40B8
:102A5000CDCCCCCCCCCC34400000000000403F407A
:102A60009A99999999D944400000000000404F403C
:102A70000000000000405F400000000000406F4088
:102A80000000000000407F40A82A0008000000204D
:102A9000B800000028010008602B0008B8000020E2
:102AA00030070000440100080000000000000000A2
:102AB0000000000000000000000000000000000016
:102AC0000000000000000000000000000000000006
:102AD00048656C6C6F000000000000000000000002
:102AE00000000000000000000000000000000000E6
:102AF00000000000000000000000000000000000D6
:102B000000000000000000000000000000000000C5
:102B100000000000000000000000000000000000B5
:102B200000000000000000000000000000000000A5
:102B30000000000000000000000000000000000095
:102B40000000000000000000000000000000000085
:102B500001000000100000000000000000127A00D8
:04000005080000ED02
:00000001FF
